S010000044504F50535F76312E7372656388
S113000050240020250100002101000021010000EE
S113001000000000000000000000000000000000DC
S113002000000000000000000000000021010000AA
S11300300000000000000000210100002101000078
S11300402101000021010000210100006D110000C8
S1130050AD0F00002101000021010000210100007A
S1130060210100000114000015140000210100000A
S113007021010000291400002101000021010000D9
S113008021010000210100002101000021010000E4
S11300902101000000000000000000002101000018
S11300A021010000210100002101000021010000C4
S11300B00000000010B5064C2378002B07D1054B37
S11300C0002B02D0044800E000BF0123237010BDC0
S11300D074010020000000009C320000084B10B5A1
S11300E0002B03D00749084800E000BF0748036815
S11300F0002B00D110BD064B002BFBD09847F9E72D
S113010000000000780100209C3200009C320000B6
S11301100000000010B5014B984710BD9105000088
S1130120FEE700002148224970B5884204D000232C
S1130130204CCA18A24232D300211F4B1F4A9342BB
S113014031D3FF211E4B1F4A8B43936002220C259F
S1130150082430261C4B1D485A62C378FC398B4353
S11301601343C370C378AB432343C370184B987BCA
S1130170B0430600202030439873987BA84304437F
S11301809C73987B884302439A738023114A516875
S11301900B435360104B9847104B9847FEE7C558E4
S11301A004331560C5E702C3C9E7C0469C320000AA
S11301B00000002074010020740100204C04002081
S11301C00000000000ED00E0FC7000410050004120
S11301D00048004100400041212E0000D5180000D5
S11301E070B51F244209C0B20440FF234D1C09D13D
S11301F01A40D201144BA218D218137802318B433F
S1130200137070BD01251340104ADB019B181E19A1
S113021040363278AA432A4332706208284209D011
S11302200F209A1830321378090103401943C9B2D8
S11302301170E6E70F209B1830331A78014082438F
S113024011431970DDE7C0464044004100440041B9
S11302501F22430910401E3A10B5824001291BD0C9
S1130260002907D0022925D045221A4900201A4B1B
S1130270984710E0C021DB01C90559184A60802164
S113028090B2C905014315481B189962110CC0228C
S113029012060A439A6210BDC021DB01C905591830
S11302A04A600F4990B201430C481B189962110C23
S11302B00C4AEEE7C021DB01C90559188A60802188
S11302C090B2C90501430548120C1B189962C0215C
S11302D00906DEE7682E0000A10E0000004400417C
S11302E000000240000002C00A4A0B4B10B5012175
S11302F05A802320094B98470421094A2320137864
S11303008B438C2113708903064B9847064B9847FF
S113031010BDC04605400000000C00405102000022
S1130320C3440041E1010000D107000070B58023FF
S1130330C0265B00F60573610E4D02210820A84714
S11303400D4C0E490820A04780239B0073610221B5
S11303500920A8470A490920A04701210A20A847E3
S11303600421084A0A2013788B4313700649A047D6
S113037070BDC04651020000E10100000200080007
S1130380020009004A44004102000A000423044A0E
S1130390116A0B431362034A034B5A807047C046E9
S11303A00004004014400000000C004010B5044B51
S11303B098470449044B05489847054B984710BD96
S11303C08D03000000080042CD09000094030020C2
S11303D02D03000070B50121104D1020A847042101
S11303E00F4A104C137810208B4313700E49A0470A
S11303F0C0268023F6059B02736102211120A847C1
S11304000A491120A04780231B0373610221132092
S1130410A84707491320A04770BDC04651020000F9
S113042050440041E10100000200100002001100EC
S1130430020013000823044A116A0B431362034A9F
S1130440034B5A807047C04600040040154000002A
S1130450000C004010B5044B98470449044B054870
S11304609847054B984710BD35040000000C004226
S1130470CD0900004C030020D503000070B5802393
S1130480C0265B01F60573610E4D02210C20A847BE
S11304900D4C0E490C20A04780239B01736102215F
S11304A00D20A8470A490D20A04701210F20A84785
S11304B00421084A0F2013788B4313700649A04780
S11304C070BDC04651020000E101000003000C00B1
S11304D003000D004F44004103000F004023044A71
S11304E0116A0B431362034A034B5A807047C04698
S11304F00004004018400000000C004010B5044BFC
S113050098470449044B05489847054B984710BD44
S1130510DD04000000180042CD090000DC030020C7
S11305207D04000010B50449044C3620A04704495A
S11305303720A04710BDC04603003600E10100008B
S1130540030037008023044A116A0B431362034AF1
S1130550034B5A807047C046000400401940000015
S1130560000C004010B5054B984700220449054B88
S113057005489847054B984710BDC04645050000FF
S1130580001C0042590E0000240400202505000030
S1130590F8B56B4B984701216A4C6B4E0800B04785
S11305A023000421012541331A78C0278A431A7095
S11305B01A78FF05AA431A7080231B01BB61023914
S11305C00B20B04722004B3213780221AB43137047
S11305D004225E4B22201A60B0472200C2321378F4
S11305E00221AB4313708023584A9B0013602920D7
S11305F0B0472200C93213780221AB431370802321
S11306005B05BB611C20B04722005C3213780221D9
S1130610AB43137080239B03BB611520B0472200BA
S1130620553213780221AB4313708023474ADB0011
S113063013602A20B0472200CA3213780221AB4348
S113064013708022414B12011A602B20B047220004
S1130650CB3213782900AB4313701620B0478021A6
S113066023000420C903796056331A7802431A70B0
S1130670B9611A782900AA431A701330B0472300CD
S1130680042157331A7828208A431A701A780239B9
S1130690AA431A703B008022943352001A60B04778
S11306A02200C83213780221AB43137080235B030A
S11306B07B611420B0472200543213780221AB43EB
S11306C013708023DB027B611220B0472200523278
S11306D013780221AB4313708023DB01BB610E202E
S11306E0B04722004E3213781B20AB43290013700D
S11306F0B0478022042112057A605B3423780B43CF
S11307002370BA612378AB432370114B9847114B84
S11307109847114B9847114B9847114B9847202302
S1130720104A91690B4393610F4A104B5A80104B46
S1130730984710490200104B10489847F8BDC0462E
S1130740010F0000004400415102000098000060C5
S1130750E9020000AD03000055040000FD040000A0
S1130760650500000004004004400000000C004047
S11307706711000000140040590C000030040020F0
S1130780EFF31083036072B6BFF35F8F7047BFF35C
S11307905F8F036883F31088704700000122F8B567
S11307A000211600FF27094D6C6853185B1005D112
S11307B0844204D12B68002B00D09847F8BD8442B2
S11307C001D33A00F1E73100EFE7C0469001002081
S11307D00122054B524210B55A60002203481A60A8
S11307E0034B984710BDC046900100209D070000B0
S11307F0410F0000F8B504001600431E984128225A
S11308000F00FF32C0B20849084B98470025102357
S11308102000A5616761E661256223720121044B12
S1130820203898472800F8BD842E0000A10E00004F
S11308301517000070B504001600431E98410622E7
S11308400D00FF32C0B20A490A4B9847A561102334
S11308500025E661656125622372203C01212000A8
S1130860054B984705492000054B9847280070BD63
S1130870842E0000A10E000049170000FF010000B3
S1130880C117000070B504000B4B0E000021051FBA
S1130890984700212000094B98472000084B00216D
S11308A098470023283423706B6B002B02D031004F
S11308B02800984770BDC04615170000491700006E
S11308C089170000036CC26B70B50400051F9342C6
S11308D00AD3064B002198470023283423702B6B3E
S11308E0002B01D02800984770BDC046891700002E
S11308F070B5051FEE6B04001D49002E20D0007951
S11309006B6C012814D8581C68642000F6188847BA
S113091030706B6C2A6C93421CD2A96B154A002967
S113092016D02079012810D8C95C2000904770BDEA
S1130930581C68645B002000F61888473080E8E79C
S113094088476B6C01336B64E3E75B00595AECE74F
S1130950E188EAE72000084B002198470023283467
S113096023702B6B002BE2D028009847DFE7C046AA
S1130970F1170000C11700004917000070B5037992
S11309800500041F0E4A012B13D8636C591C6164C3
S1130990A16BC95C28009047626C236C9A4207D112
S11309A00021084B2800984701212800064B98474E
S11309B070BD636C591C6164A16B5B00595AE9E713
S11309C0C1170000151700008917000070B5040056
S11309D00E00002803D00800431E9841C0B21149FC
S11309E0114BA522251D98476660310028000F4B46
S11309F09847002815DB0E4E0E4A00212800B04708
S1130A000D4A01212800B0470C4A02212800B047B2
S1130A100B4A03212800B04700200A4BA3620A4B6B
S1130A20636270BD842E0000A10E00000116000058
S1130A301D1800007D090000F1080000C508000031
S1130A408508000035080000F507000010B5040013
S1130A50431E9841C1220449C0B2044B9847201D4B
S1130A60034B984710BDC046842E0000A10E000021
S1130A704D16000010B50400431E9841C7220434EB
S1130A80C0B20749074B984700212000064B9847FE
S1130A9000212000054B98472000054B984710BDC6
S1130AA0842E0000A10E0000151700004917000055
S1130AB09516000070B50400431E98410D00094BC3
S1130AC0C0B2D9220849984723002C331B78DB068F
S1130AD004D4201D2900054B984770BD04204042D2
S1130AE0FBE7C046A10E0000842E0000E1160000C2
S1130AF0F8B504001D001700431E98419C220E0007
S1130B00C0B252001049114B98470023636423007C
S1130B10102225642C33251DE763A66301211A7076
S1130B2028000B4B98470B4A002E0BD0217A636C9C
S1130B30012904D8F15C280090470020F8BD5B002F
S1130B40995BF8E76189F6E7842E0000A10E0000A6
S1130B5049170000C1170000002370B504000E00FF
S1130B601500984203D001228A425B41D8B2642224
S1130B700849FF32084B9847002E01D1256370BD08
S1130B8065636A1E9541201DEAB20321034B984711
S1130B90F5E7C046842E0000A10E000051180000A5
S1130BA0F7B50568002D02D1114B9847F7BD012612
S1130BB02C0000278B680093B31A0193A66863681E
S1130BC0B44693420DD863449B1A009EB3420CD2A0
S1130BD023682700002B02D13800064BE5E71C00F0
S1130BE0ECE7019EF3186344EFE7A542F4D1DBE799
S1130BF0B90E0000E90E0000F8B5036905005E1C9B
S1130C00037E44690661DB0702D4037E9B0717D584
S1130C1002232A7E13432B76F8BD2F0014370C4B86
S1130C2038009847237C012B05D1666032002100EF
S1130C303800084B98476F69E368200098473C00E8
S1130C40002CE9D06368A268F31A9342E5D2E3E783
S1130C50F10E0000A10B000070B504000D00002887
S1130C6003D00800431E9841C0B23B220549064BFD
S1130C70984729002000054B98470020044B206129
S1130C80236070BDA12E0000A10E00009910000089
S1130C90F90B000070B50500431E98415322C0B201
S1130CA00749084B98472800074B9847041E04D16E
S1130CB02800064B9847200070BD11204042FBE7F6
S1130CC0A12E0000A10E00004D110000ED10000047
S1130CD070B50400431E98410D006F22C0B2044950
S1130CE0044B984729002000034B9847002070BD0F
S1130CF0A12E0000A10E000039110000F0B504007F
S1130D0085B00E00002803D00800431E9841C0B2ED
S1130D1001277A221A491B4B9847237E31003B4313
S1130D2023762300143301931800174B9847051EAC
S1130D300CD0237E7F22BB43237611490020114B24
S1130D40122598476D42280005B0F0BD2269310094
S1130D50726002260D4B01989847237EBB4323768D
S1130D60237E3342EFD003A8094B9847237E20000B
S1130D70B3432376074B984703A8074B9847E2E70A
S1130D80A12E0000A10E0000A90E0000A10B00007E
S1130D9081070000651100008F070000F8B504000A
S1130DA00E001700002804D0081E02D01000431EB5
S1130DB09841F1220E490F4B984725000835280029
S1130DC00D4B98470028F8D00024315D28000B4BC8
S1130DD098472800084B98470028FAD00134BC42B1
S1130DE0F3D32800064B98470028FAD02000F8BD1A
S1130DF0B82E0000A10E0000E1130000D113000082
S1130E00EB130000F7B506000D000192002804D092
S1130E10081E02D01000431E984186220A4952003F
S1130E200A4B98470024370008373800084B984786
S1130E300028F8D0074B38009847019B2855013407
S1130E409C42F0D32000FEBDB82E0000A10E00008D
S1130E50F5130000D913000070B504000D0000283C
S1130E6003D00800431E9841C0B20849084B3422FD
S1130E709847200029000830064B9847002803D1E2
S1130E80054B6360054B236070BDC046B82E00005F
S1130E90A10E0000A5130000050E00009D0D00002A
S1130EA0002800D100BE70470068002800D17047B8
S1130EB08842F9D10120FAE770B5084B0D0004000F
S1130EC09847030001205840C0B239220449054B19
S1130ED0984723682B60256070BDC046A90E0000AA
S1130EE0D42E0000A10E000003680B60016070475F
S1130EF00368002B01D01A680260180070470000D4
S1130F0010B5064B5A685A60054B9847054B9847ED
S1130F10054B9847FF20054B984710BD0040004102
S1130F207110000085180000C51800005110000061
S1130F30024A5378DB09FCD17047C04600180040D0
S1130F40F8B5154C154D0700A847A84723789B070B
S1130F5003D500232370A847A84701230026237044
S1130F60A847A8470223A67066606661A661E66189
S1130F70227813432370A84710230949094ACB67F1
S1130F80BFF34F8FBFF36F8FC021490053501360DD
S1130F90054B30001F60F8BD00180040310F000001
S1130FA004E100E000E100E098010020F7B5224DE3
S1130FB022492B69EA68012613400193019BD2223E
S1130FC02B611F4B76421868431E98411D4BC0B2DB
S1130FD09847019B002B1CD1F7BD1B4B012000221D
S1130FE09C46674683185B10D9B2DB00DB5DA342E5
S1130FF020D01CDA0131CAB29042F2D2731C03D061
S11310000F4B30001B6898470122A240019B934379
S1131010019301980D4B9847013844B2631CDCD10D
S11310202B69EA6813400193019B2B61D1E70139D5
S1131030C8B2E1E72326E3E700180040FC2E0000D5
S113104098010020A10E0000F42E0000C52100002C
S1131050C30709D58022054B52009A6083225202AD
S11310605A605A78D209FCD17047C046000C00403F
S1131070064B1A7AD2B21A725A7AD2B25A729A7A3F
S1131080D2B29A72DA7AD2B2DA72704700040040AD
S1131090837ADB09FCD1704770B50400431E984184
S11310A00D00012633220D490D4BC0B29847E5606F
S11310B028002E800B4DA847E068A8478023E068ED
S11310C00380A847E06883698023DB008361A84725
S11310D0E3680020DE71044B1C6070BD112F00001A
S11310E0A10E0000911000009C01002070B5041EA8
S11310F003D0C068431E9841C0B20B496A220B4B0F
S1131100984708220A4BE0681A6003690023094DD6
S11311100361A847E068A8470223E06802881343F4
S11311200380A84770BDC046112F0000A10E000027
S113113000E100E09110000010B5C068836981618E
S1131140014B984710BDC0469110000010B5C4680B
S1131150034B2000984720888007C00F10BDC0466D
S113116091100000704700207047000070B5012501
S1131170064B1C68E3681B7A2B4206D02368002BBD
S113118001D020009847E3681D7270BD9C010020C7
S1131190002805DB1F2318401E3B8340014A1360CF
S11311A07047C04600E100E0002809DB1F23184017
S11311B01E3B8340034AD367BFF34F8FBFF36F8F48
S11311C07047C04604E100E0002807DB1F23C0226B
S11311D018401E3B8340024952008B507047C04662
S11311E000E100E0C3691942FCD17047C3691942A8
S11311F0FCD17047022210B50368032193430360B6
S1131200014B984710BDC046ED110000084B9842B1
S113121002D1084B19607047074B984202D1054B25
S11312205960F8E7054B9842F5D1024B9960F2E713
S113123000080042A0010020000C004200180042F7
S1131240012310B5C4691C4008D10268DB1813439C
S113125003600321034B9847200010BD0420404243
S1131260FBE7C046E511000010B50268137E917DCE
S11312700B40D90702D58368984710BD04210B425F
S113128001D0C368F8E70224234202D0147603692C
S1131290F2E75BB2002BF0DA80235183132113763B
S11312A0436949429847E8E7F7B503260500C06952
S11312B00C003040019011D131002800094FB8478B
S11312C02B68094A24071340C022920514401C438A
S11312D028002C603100B8470198FEBD042040422C
S11312E0FBE7C046E5110000FFFFFFCF012310B567
S11312F0C4691C4008D1022203680321934303609C
S1131300034B9847200010BD04204042FBE7C04631
S1131310E51100001C4B70B5C3189B0ADBB2040036
S1131320052B05D09022194992000020184B9847AC
S1131330E369184DDB0711D4022603212000A847D6
S11313402368334205D02000134B98473100200016
S1131350A8470523032123602000A847200001217A
S1131360A8470E4B200023600321A847C0239B02FB
S1131370636020000721A8470020094BA381A073C4
S11313803034207070BDC04600F8FFBD732F0000DC
S1131390A10E0000ED110000F51100000400314021
S11313A015FBFFFF70B50500431E98410C00BA22DF
S11313B00449C0B2044B98472C602000034B984763
S11313C070BDC046732F0000A10E0000151300006D
S11313D0036889B2198570470368188DC0B27047D5
S11313E00368187E0123184070470368187E80073D
S11313F0C00F70470368187E4007C00F7047000095
S113140010B5024B1868024B984710BDA00100208C
S11314106912000010B5024B5868024B984710BD82
S1131420A00100206912000010B5024B9868024B1D
S1131430984710BDA001002069120000644BF7B565
S1131440CC18A40AE4B207000D00624B002C05D0AE
S1131450012C03D0042C00D0AFE0023C1122002068
S113146054435D4A18321419874203D02800421E9F
S11314709041C0B2594A5A499847002C00D1A4E07F
S1131480EB69584EDB071AD41C23227803211A4037
S113149028000192B04702222B68134208D02B681F
S11314A00321934328002B60B04702212800B04752
S11314B00123019A032113432B602800B047012123
S11314C02800B0471C2223783D601340082B46D1E6
S11314D0454A434901203F4B9847627823781202DA
S11314E01A43A37803211B041A43E37828001B063C
S11314F013433E4A13402B60B047627923791202AA
S11315001A43A37907211B041A43E37928001B0615
S11315101343374A1340374A13436B60B047627A28
S1131520237A12021A43A37A1B041A43E37A1B0692
S113153013436B622B00627B30331A70EB69002B10
S1131540FCD107222379002013405A1E9341013312
S11315503B71E37BA27B1B021343FB80FEBD264A47
S11315601F4901201B4B98476278237812021A43C3
S1131570A37828001B041A43E37803211B061343B2
S11315801A4A13402B60B0476279237912021A4336
S1131590A37928001B041A43E37907211B0613438C
S11315A0164A13408022920213436B60B047237B98
S11315B02B73637B30352B70C3E70024A04200D02B
S11315C054E7064A0649380098470D204042C5E7CB
S11315D000F8FFBDA10E0000282F000056090000EE
S11315E0732F0000E51100000B090000FCFEFFFF53
S11315F0BFDDFDFF40020200F7080000BF1DFDFF34
S113160070B50D4B06000C009847002813DB00252D
S113161031002000094B9847094B3561E418A40AAE
S1131620093464B22000074BF560B5609847200088
S1131630054B9847280070BD3D1400000D120000B2
S113164000F8FFBDA9110000C911000010B5041E67
S113165003D00068431E9841C0B2084A0849094BA8
S113166098472468084B20009847084BE018800AE4
S1131670093040B2064B9847002010BDBF09000056
S1131680732F0000A10E00004112000000F8FFBDFE
S11316909111000010B5041E03D00068431E984148
S11316A0C0B2094A09490A4B98472468094B2000EB
S11316B0984787232375084BE018800A093040B205
S11316C0064B9847002010BDDB090000732F000073
S11316D0A10E0000ED12000000F8FFBDA9110000EA
S11316E070B504000D00002803D00068431E984123
S11316F0C0B29F2204491201044B98472900206874
S1131700034B984770BDC046732F0000A10E000024
S1131710A912000070B504680D002000431E984112
S1131720064A074BC0B2074998470123002D02D04F
S1131730A375002070BD2375FBE7C046E20A0000D4
S1131740A10E0000732F0000F8B50B4E04680B4A7D
S113175001200B4D0F003100A8472000431E984183
S1131760084AC0B23100A8470423002F02D0A37551
S11317700020F8BD2375FBE7732F0000F60A000074
S1131780A10E0000F70A000070B504000D00002847
S113179003D00068431E9841C0B2064A064B07496D
S11317A0984723680222002D02D09A75002070BD4C
S11317B01A75FBE7090B0000A10E0000732F00004F
S11317C070B504000D00002803D00068431E984142
S11317D0C0B2044A0449054B9847236800209D621F
S11317E070BDC0461B0B0000732F0000A10E00004B
S11317F010B5041E03D00068431E9841C0B2044AC9
S11318000449054B98472368986A80B210BDC046C6
S1131810360B0000732F0000A10E0000002370B5EA
S113182004000D001600984203D003228A425B4153
S1131830D8B2AD006419034A0349044B9847A66023
S1131840002070BD4F0B0000732F0000A10E00009C
S113185070B504001500431E9841B9220E00C0B2B1
S113186012010649064B9847032E04D123688022AF
S1131870002D01D11A7570BD9A75FCE7732F000015
S1131880A10E00000D4B0E48196A1A6A014002208D
S1131890920F920702430A431F211A629A69104366
S11318A098611A7F0A401A770822D9681142FCD03D
S11318B08022196A0A431A627047C0460008004031
S11318C00000FF0F0221024A93698B439361704722
S11318D00008004010B5104B9847104B984710482B
S11318E0104CA047002807D10F48A047002803D177
S11318F00E48A047002800D0FEE70D4B80249847EF
S113190064000C4B1C601C601C601C600A4B1C6057
S11319100A4B9847F5E7C046150100006D21000009
S11319202001002011200000F00000200800002009
S11319304920000098000060940000606D200000C1
S11319400122014B1A707047000000201F2201235E
S113195002409340C0224009D205C00180180022F1
S113196010B54361044B054C1A70054A8BB2110043
S113197004482C31A04710BD00000020F10A0000EB
S1131980AC0100204C03002010B5074C074A00218D
S11319902000074B98472000064B98470122064B2E
S11319A058331A7010BDC0464C0300204119000082
S11319B0590B00004D0A0000AC0100201F22012336
S11319C002409340C0224009D205C00180188361BF
S11319D0704700008BB210B50324FF2B00D90834E4
S11319E0034B2C331C7059701100024B984710BDE7
S11319F0AC0100204D19000010B506490A18D3782F
S1131A009478527824041B061B191202085C9B1854
S1131A10181810BDAC01002070B504000220114D4F
S1131A200130431EEA5CC31EE2541228F8D101308F
S1131A30431EEA5CC31EE2541D28F8D10A4EB04787
S1131A40E0612120B0472523206201335A1EA95C9E
S1131A509A1EA1542A2BF8D12A352B7829342370C5
S1131A6070BDC046AC010020F9190000F0B50600B5
S1131A700C000225174F87B02800B847AB1E02AAF6
S1131A800435D050122DF7D1022E0ED0032E16D0CD
S1131A90012E08D1029B6363039BA363049B019300
S1131AA0E363059B236407B0F0BD029B6364039B5F
S1131AB0A364049B0193E364059B2365F3E7029B02
S1131AC06365039BA365049B0193E365059B236600
S1131AD0E9E7C046F9190000030010B50800022B1D
S1131AE008D0032B09D0012B03D112228221054BEC
S1131AF0984710BD1222D221F9E791211222490000
S1131B00F5E7C046D51900000300F0B5663385B08B
S1131B100400344E0020185EB047334D0190011C80
S1131B20A847011C02900198A847071CE06EB04723
S1131B30216C0390381CA847E16B061C0298A84747
S1131B402A4B011C301C9847A16B061C0198A8471E
S1131B50264B011C301C9847616B244B9847244B3F
S1131B60011C03989847216D061C381CA847E16C9A
S1131B70071C0298A8471D4B011C381C9847A16CF0
S1131B80071C0198A847194B011C381C9847616C25
S1131B90164B9847174B011C301C9847216E061CA6
S1131BA0A847311CA847311CA847E16D071C301C0D
S1131BB0A847311CA8470D4B011C381C9847A16D40
S1131BC0071C301CA847094B011C381C9847616D41
S1131BD0064B9847E169A847216A044B9847206758
S1131BE005B0F0BD052D00008D270000D9210000AF
S1131BF0CD290000FD240000F8B5C14D2B00583359
S1131C001B78002B59D0BF4E3378002B55D0BE4CD7
S1131C10230044331F78142F00D9C7E1380000F0A3
S1131C20C7FA1500290034003B004D005500670039
S1131C30700084008E004C00CA00E300F00008012C
S1131C401D013601580161019301B20173785C35BD
S1131C50012B01D0AD4D5035A5641C20012B00D0C3
S1131C600738AB4B2B220021B07098470123443432
S1131C70237022E0B078A74B9847A06CA64B9847F6
S1131C8001234434F370DB18F2E7A44BB178F07805
S1131C90984744340323EBE7B0789E4B9847A04B16
S1131CA0F078A16C9847F37802220133DBB2F37029
S1131CB0032B00D9921844342270F8BD944BB078A9
S1131CC00A223D21984744340523D1E7914BB0784B
S1131CD09847A36CA9781A002A32117029792D33F8
S1131CE05170A979443491702A7A1A700623BFE797
S1131CF0E121874BB07804224900984744340723F4
S1131D00B6E7844BB0789847EB78AA781B02D218D0
S1131D10A36C64331A80230000224C331A800123FD
S1131D205B42B38044340933A2E723004C3319885F
S1131D30B078774B032298474434092398E7B07866
S1131D40744B9847B388AA78190A4A4075495200D7
S1131D50525A2100C22025004C311B0253400A88EC
S1131D609BB2013292B2FF30B3800A804435824282
S1131D7002D808232B70A0E7A26C643212889A421E
S1131D8001D00A23F6E77378012B05D8002201332A
S1131D900A8073702A7090E7634C644B2000984764
S1131DA00121634B20009847624B20009847012390
S1131DB073700A33DEE72B0070785C33012801D09E
S1131DC0524B50330138A364431E984106232C35EB
S1131DD02A302B700121584BB0709847574B44342C
S1131DE01B68E3600C2343E74A4BB0789847534B96
S1131DF0226D1B689B1A636500D00D27443427703D
S1131E005BE743232C352B70A36CB0781A002A327D
S1131E10127805216A708622AA701A002C32127870
S1131E202D33EA701B7844342B71434B98470E23AF
S1131E301EE7384BB07898477378012B04D80133E8
S1131E40737044340B2313E701232C35737043332D
S1131E502B703C3BAB704434073309E72B0070789C
S1131E605C33012801D0294B50330138A364431E4D
S1131E70984184232C352A306B7003212E4BB0708B
S1131E8098472E4B44341B68E3601023F0E6B07887
S1131E90204B984728786B78A66C0002C018330052
S1131EA0801066331880264B9847F421254B89050A
S1131EB098471123443423708022C0235203DB0546
S1131EC0B0669A619A619A619A619A619A615A615B
S1131ED0F3E61A4B226D1B689B1AA365032B8DD95D
S1131EE012278BE786232C356B70B078124B0321B5
S1131EF09847124B44341B68E3601323B8E6C0468A
S1131F00AC01002000000020AC0200202C020020C4
S1131F10D5190000BD190000191A0000D91A0000D3
S1131F206D1A00008E2F00004C030020750A00007B
S1131F30B50A00004D0A00004D19000034030020CA
S1131F40052D00008D270000B0781A4B98476A7859
S1131F502B7812021B049B18AA78A06C9B181B02F6
S1131F601B12C366144B98471423443423708022F5
S1131F70C0230A21DB0552039A610139C9B29A616F
S1131F800029FAD1A3E70D4B226D1B6844349B1A38
S1131F906361032B01D814236AE60F23237073783B
S1131FA0013B594259414B1C737086E600221A705A
S1131FB083E6C046BD190000091B0000340300205D
S1131FC0014A024B1A807047EF120000A40000205F
S1131FD00022014B5A817047A4000020044BDA7997
S1131FE0002A04D05A88D2431A800022DA7170473A
S1131FF0A4000020054A1300517C0A33002903D0B1
S1132000598851810022DA717047C046A40000202B
S11320100C4A30B513680121062B11DC0488002B0F
S113202004DD9D00AD586D88A54209D8458801217D
S1132030A54205D35918116000219B00D31858609C
S1132040080030BD0803002010B50024064B1A68B0
S1132050944200DB10BD0433A200D3589B68002BCC
S113206000D098470134F1E70803002010B500249C
S1132070064B1A68944200DB10BD0433A200D35807
S1132080DB68002B00D098470134F1E708030020F7
S113209030B5048800238C420DD845888D420AD37C
S11320A0091B0A334B434168C9180B79002B02D032
S11320B00A8000224A71180030BD0000F8B5134EA2
S11320C0134C33001E33DB7B002B07D0636AA26AF8
S11320D002336362934201DB00236362656AA36A8D
S11320E034365B1B0133DA0FD2185210094F30001B
S11320F092B20821B847216A30004B195B784A5DD7
S11321001B02D21892B20921B847F8BDA4000020DE
S11321100803002091200000094B0A4A70B51A6296
S11321200022094C5A6234342D329A62074D163A11
S113213008212000A847064A09212000A84770BDAD
S1132140080300208E310000A4000020912000002C
S113215056390000044A1368013313608022C023F7
S1132160D202DB05DA6170473403002010B5094C54
S113217009492000094B984701230949094ACB60C2
S11321800B750A6120000431074B98472000074B68
S1132190984710BD30040020281F0000D10C000017
S11321A03403002055210000FD0C0000950C0000B4
S11321B003B47146490840004900095A49008E4455
S11321C003BC704710B50023002802D000F008FEBD
S11321D0431C180010BDC046F0B5C6464E02470267
S11321E0760A7B0A4400C50FF7004800984600B5FC
S11321F0240E2A00DB00000EC90FBC468D4267D0B6
S1132200221A002A00DCA5E000283AD1002F00D1D0
S113221093E0511E002900D0BCE00124DB1B5A01CD
S113222046D59B019E09300000F0BCFD0538864070
S1132230844200DD9DE0041B320020200134E24092
S1132240041BA64033005E1EB341002413435A0707
S113225004D00F221A40042A00D004335A0129D58D
S11322600134FF2C00D181E02A009B015B0AE4B217
S11322705B02E405580AD2072043104304BC90468D
S1132280F0BDFF2CE3D080213800C9040843844604
S11322901B2A00DD82E020206146D140821A60467C
S11322A090400200501E82410A439B1A5A01B8D43E
S11322B05A07CED1DE082A00FF2C3AD1002E00D1D5
S11322C0AEE08023DB0333435B025B0AFF24CFE7EA
S11322D0211A002952DD002831D0FF2CB7D08020EC
S11322E03E00C0040643B4461B2900DDAAE02026B4
S11322F06046C840711A66468E4031004E1EB14198
S113230001435B185901D3D50134FF2C00D187E078
S1132310012278491A405B080B40134397E7002CCD
S113232000D0A7E0002B00D0B6E03B1E62D100260F
S1132330002273025B0AE4B29AE7140087E7002FD5
S11323404DD0481E002857D1634401245A01AFD50B
S11323500224DDE7002A24D1621CD2B2012ADEDD88
S1132360DE1B720135D5FE1A0D005CE72A0000233E
S11323707EE73300604A241A134068E7002963D1DA
S1132380611CC8B201284EDDFF2949D063445B08B3
S11323900C005CE7FF2A41D00A0079E701229B1A6E
S11323A084E7002C1DD0FF2822D08024E40452426C
S11323B023431B2A00DD8AE01C002025D440AA1AEE
S11323C093405A1E9341234362460400D31A0D00DE
S11323D025E7002E00D026E700220024A9E70C0000
S11323E035E7002B4DD0D243002AEDD0FF28E0D1B1
S11323F06346FF240D002AE7FF290FD0010073E78D
S1132400002B61D0FF24002F00D120E78022414619
S1132410D203114202D0164200D13B00FF2416E73A
S1132420FF24002324E7002CEAD1002B58D0002FEE
S113243000D10CE763445A0100D439E72E4A0C005A
S1132440134004E701215CE7002C1ED1002B40D08F
S1132450C94300290BD0FF2836D01B2947DC1C00B8
S11324602026CC40711A8B40591E8B412343634470
S1132470040047E7002B18D13B1E2DD00D00FF248C
S1132480E5E63B0004000D00E1E6FF281CD08024B3
S1132490E40449422343E0E7002F00D1D7E6DE1BE2
S11324A072011FD5FB1A0D00D1E6FF24002F00D1C5
S11324B0CDE680224046D2031042AFD01642ADD1C1
S11324C03B000D00FF24C2E66346FF24BFE6012360
S11324D07AE73B000400BAE680260022F603F0E621
S11324E03B00B4E6331E00D0E2E6002221E70123DC
S11324F0BDE7C046FFFFFF7DFFFFFFFBF0B557467A
S11325004E46DE464546E0B544024300C60F83B05E
S11325100F1C640A1B0EB24653D0FF2B27D0802217
S1132520E400D20414437F2252429046984400238C
S113253099469B467D027800FB0F6D0A000E0093BE
S113254024D0FF2846D080230021ED00DB041D4366
S11325507F384746381A4F460F43BF00B946330009
S1132560009A874F53404A46BA5801939746002C25
S11325704ED108239946F7339846FD3B9B467D028E
S11325807800FB0F6D0A000E0093DAD1002D26D1DE
S1132590002001213300009A7A4F53404246101A1A
S11325A04A460A439200BA581D009746009B2C00E5
S11325B09A468B465B46022B31D15346FF210024B9
S11325C038E0002C17D104239946002398460133A0
S11325D09B46AFE7FF20002D0BD10221DAE728004C
S11325E000F0E0FB431F9D4076235B42181A002154
S11325F0AFE70321ADE7200000F0D4FB431F9C406C
S113260076235B421B1A9846002399469B4691E722
S11326100C239946F3339846FC3B9B468AE7032BED
S113262000D1A5E05546012B00D081E00123002113
S113263000242B406402C905600ADB0708431843E1
S113264003B03CBC90469946A246AB46F0BD8024FC
S11326500023E403FF21EDE7FF210024EAE701233F
S1132660591A1B2966DD019A134000210024E1E771
S11326708023DB031C4238D01D4251D01C4364022A
S1132680640A3300FF21D5E763016C01A3423BD206
S11326901B260021013801251F0049005B00002F83
S11326A001DB9C4201D81B1B2943013E002EF3D1C0
S11326B01C00631E9C410C4301007F310029CEDDC8
S11326C0630704D00F232340042B00D004342301D8
S11326D003D501002C4B80311C40FE290DDD012364
S11326E0019AFF2113400024A4E78023DB031C4349
S11326F06402640A3300FF219CE70123019AA401C8
S1132700640AC9B2134095E71B1B1A260121C2E7CC
S1132710009B8B469A4600244CE76302E5D50025CE
S11327208024E4032C436402640A009BFF2181E7B4
S11327300195C1E723002020CB40411A8C40611E43
S11327408C411C43630704D00F232340042B00D087
S11327500434630105D50123019A012113400024A7
S113276068E70123019AA401640A1340002161E788
S11327708023DB031C436402640A5346FF2159E7A8
S1132780BC310000FC310000FFFFFFF7F8B55746ED
S11327904E464546DE46E0B54702460088467F0A77
S11327A0360EC40F002E47D0FF2E24D0FB00802706
S11327B0FF041F43002399469A467F3E43465D0229
S11327C05800DB0F6D0A000E984643D0FF283BD01B
S11327D0EB0080250022ED041D437F383618731C5E
S11327E041469B464B46614013430F2B64D87548C2
S11327F09B00C3589F46002F42D108239946063BAD
S1132800FF269A46DAE74146022A28D0032A00D155
S1132810CEE0012A00D0ACE0114000200022CCB26E
S11328204002D205400AE407104320433CBC9046D2
S11328309946A246AB46F8BD002F15D1042399460C
S1132840033B00269A46B9E7FF200222002DC5D09B
S11328500322C3E7002D19D100200122BEE7012481
S1132860FF220C400020DBE7380000F09BFA7626BC
S1132870431F9F4000237642361A99469A469DE7A5
S11328800C239946093BFF269A4697E7280000F057
S113289089FA431F9D4076235B42181A00229DE764
S11328A080200024C003FF22BAE73D005246ABE774
S11328B03D0021005246A7E73B0C9C462A04120C1B
S11328C02B0C1400604665463F043F0C7C43424396
S11328D05D437B43270C9B18FF18BA4203D980231E
S11328E05B029C46654424043A04240C12199301A7
S11328F05C1EA3413F0C920E7D191A43AD01154392
S11329002B0104D501235E466A081D40154332009D
S11329107F32002A25DD6B0704D00F232B40042BC4
S113292000D004352B0103D53200274B80321D40E3
S1132930FE2A94DC0124A801400AD2B20C406FE7BD
S11329408020C003074207D0054205D12843400236
S1132950400A4446FF2263E738434002400AFF220C
S11329605EE70124A31A1B2B05DD0C400022002086
S113297056E75E46CBE72A002020DA40C31A9D4082
S11329802B005D1EAB4113435A0704D00F221A409B
S1132990042A00D004335A0104D5012401220C4036
S11329A000203DE701249B01580A0C40002237E730
S11329B080200124C00328434002400A0C40FF2227
S11329C02EE7C0463C320000FFFFFFF7F0B54F464C
S11329D0D64646464400C0B5C20F47024802400AE4
S11329E0844666467B0A4800C90F9A46240E1500A1
S11329F0DB00000E8946F600FF2800D18FE001219C
S1132A004F464F403900914266D0221A002A00DC1A
S1132A109DE000283DD1002E00D18BE0511E0029FD
S1132A2000D0B5E001249B1B5A0144D59B019F09AA
S1132A30380000F0B7F905388740844200DD96E09D
S1132A40041B3A0020200134E240041BA7403B0051
S1132A505F1EBB41002413435A0704D00F221A40BF
S1132A60042A00D004335A0127D50134FF2C00D1A5
S1132A7079E001229B015B0AE4B22A405B02E4058F
S1132A80580AD207204310431CBC90469946A246DC
S1132A90F0BDFF2CE0D08021C9040E431B2A7BDC4F
S1132AA031002020D140821A9640721E96410E4376
S1132AB09B1B5A01BAD45A07D0D10122DF082A40FD
S1132AC0FF2C33D1002F00D1A8E08023DB033B434C
S1132AD05B025B0AFF24D1E7211A00294CDD0028A0
S1132AE02AD0FF2CB8D08020C00406431B2900DD67
S1132AF0AFE030002027C840791A8E40711E8E4105
S1132B0006439B195901D6D50134FF2C00D185E029
S1132B1001227A491A405B080B4013439CE7002EBC
S1132B2000D070E76BE73B1EC5D100227B025B0A35
S1132B30E4B2A3E714008FE7002E4DD0481E00280E
S1132B4057D19B1901245A01B5D50224E0E7002A84
S1132B5025D1621CD2B2012A72DD9F1B7A0135D5C0
S1132B60F71A0D0064E7012200232A4086E73B00A0
S1132B70634A241A13406FE700296CD1611CC8B260
S1132B8001284EDDFF2949D09B195B080C0063E73F
S1132B90FF2A41D00A0081E701269B1B89E7002C0C
S1132BA01CD0FF2821D08024E404524223431B2A52
S1132BB000DD96E01C002025D440AA1A93405A1E3A
S1132BC093412343F31A04000D002DE7002F00D096
S1132BD02EE700220024A9E70C003DE7002B58D083
S1132BE0D243002AEED0FF28E1D13300FF240D00A8
S1132BF032E7FF2910D0010078E7002B6ED0FF24C4
S1132C00002E00D128E780225146D203114203D07E
S1132C106146114200D13300FF241DE7FF24002345
S1132C202CE7002CE9D1002B63D0002E00D113E750
S1132C309B195A0100D43EE7314A0C0013400BE7BC
S1132C40002C1ED1002B2FD1002E4FD033000D00AD
S1132C5002E7012655E7002C1FD1002B43D0C943BE
S1132C6000290BD0FF2839D01B2944DC1C00202765
S1132C70CC40791A8B40591E8B4123439B19040085
S1132C8040E7002B1AD1002E24D180270022FF0315
S1132C901BE7330004000D00DEE6FF281ED080246D
S1132CA0E40449422343DFE7002E00D1D4E69F1B0E
S1132CB07A0100D437E7F31A0D00CDE6FF24002E85
S1132CC000D1C9E680225046D2031042A4D0604607
S1132CD01042A1D133000D00FF24BDE63300FF24D0
S1132CE0BAE601236EE733000400B5E600270022AC
S1132CF01CE73300B0E60123C0E7C046FFFFFF7DB9
S1132D00FFFFFFFB70B5002830D0C317C4185C4028
S1132D10C50F200000F046F89E231B1A962B0DDCED
S1132D209622D21A94402A006402640ADBB2640236
S1132D30DB05600AD2071843104370BD992B19DCD8
S1132D409922D21A002A29DD94402200144C1440FE
S1132D50510704D00F210A40042A00D00434620130
S1132D6013D4A401640ADBB22A00E0E700220023A2
S1132D700024DCE705222100121AD140B922D21A1C
S1132D809440621E94410C43DAE7054B2A001C4030
S1132D909F23A4011B1A640ADBB2C8E72200D5E70B
S1132DA0FFFFFFFB1C2101231B04984201D3000CED
S1132DB010391B0A984201D3000A08391B099842AA
S1132DC001D30009043902A2105C40187047C046C0
S1132DD004030202010101010000000000000000E0
S1132DE0414208401C2101231B04984201D3000CDA
S1132DF010391B0A984201D3000A08391B0998426A
S1132E0001D30009043902A2105C401A7047C0467D
S1132E101B1C1D1D1E1E1E1E1F1F1F1F1F1F1F1FCD
S1132E2070B500260C4D0D4C641BA410A64209D1AC
S1132E30002600F023FA0A4D0A4C641BA410A64293
S1132E4005D170BDB300EB5898470136EEE7B300E7
S1132E50EB5898470136F2E78832000088320000C8
S1132E60883200008C3200002E2E2F68706C2F7078
S1132E706F72742F68706C5F6770696F5F626173E3
S1132E80652E68002E2E2F68616C2F7372632F6875
S1132E90616C5F7370695F6D5F6173796E632E63DC
S1132EA0002E2E2F68616C2F7372632F68616C5F24
S1132EB074696D65722E63002E2E2F68616C2F73FA
S1132EC072632F68616C5F75736172745F73796E7E
S1132ED0632E63002E2E2F68616C2F7574696C73DA
S1132EE02F7372632F7574696C735F6C6973742EBE
S1132EF06300000003000000230000002E2E2F6852
S1132F00706C2F6569632F68706C5F6569632E63ED
S1132F10002E2E2F68706C2F7274632F68706C5F94
S1132F207274632E630000000000000000000000C3
S1132F30000000000000000000000000000000008D
S1132F400C00200000000200000000000300FF004D
S1132F50000C00020000000200000000000300FF5B
S1132F6000010C003000000002000000000003001B
S1132F70FF00042E2E2F68706C2F736572636F6DC3
S1132F802F68706C5F736572636F6D2E6300000051
S1132F902110422063308440A550C660E770088148
S1132FA029914AA16BB18CC1ADD1CEE1EFF13112BF
S1132FB0100273325222B5529442F772D662399398
S1132FC018837BB35AA3BDD39CC3FFF3DEE362240F
S1132FD0433420040114E664C774A44485546AA5E8
S1132FE04BB528850995EEE5CFF5ACC58DD553369F
S1132FF0722611163006D776F6669556B4465BB738
S11330007AA719973887DFF7FEE79DD7BCC7C4486E
S1133010E5588668A7784008611802282338CCC987
S1133020EDD98EE9AFF9488969990AA92BB9F55AFE
S1133030D44AB77A966A711A500A333A122AFDDBD7
S1133040DCCBBFFB9EEB799B588B3BBB1AABA66CCE
S1133050877CE44CC55C222C033C600C411CAEED27
S11330608FFDECCDCDDD2AAD0BBD688D499D977EDE
S1133070B66ED55EF44E133E322E511E700E9FFF77
S1133080BEEFDDDFFCCF1BBF3AAF599F788F88912D
S1133090A981CAB1EBA10CD12DC14EF16FE1801011
S11330A0A100C230E3200450254046706760B98314
S11330B09893FBA3DAB33DC31CD37FE35EF3B10261
S11330C09012F322D2323542145277625672EAB524
S11330D0CBA5A89589856EF54FE52CD50DC5E234B1
S11330E0C324A01481046674476424540544DBA7F4
S11330F0FAB79987B8975FE77EF71DC73CD7D32601
S1133100F2369106B01657667676154634564CD983
S11331106DC90EF92FE9C899E9898AB9ABA9445850
S1133120654806782768C018E1088238A3287DCB53
S11331305CDB3FEB1EFBF98BD89BBBAB9ABB754AA0
S1133140545A376A167AF10AD01AB32A923A2EFDE3
S11331500FED6CDD4DCDAABD8BADE89DC98D267CF0
S1133160076C645C454CA23C832CE01CC10C1FEF33
S11331703EFF5DCF7CDF9BAFBABFD98FF89F176E40
S1133180367E554E745E932EB23ED10EF01E5639E5
S11331903A303A44504F50535F6C697463685F68C7
S11331A061636B207544414353205265762042206D
S11331B056312E3220532F4E3A3300008826000019
S11331C0582600006A260000AC2500006A2600008C
S11331D04E2600006A260000AC2500005826000098
S11331E0582600004E260000AC250000B42500003F
S11331F0B4250000B4250000702600005826000005
S1133200582600002C260000102700002C26000061
S11332104E2600002C26000010270000582600002F
S1133220582600004E26000010270000B425000098
S1133230B4250000B42500001A270000B8280000B7
S1133240082800000828000006280000AA2800001A
S1133250AA280000A028000006280000AA280000D0
S1133260A0280000AA28000006280000B0280000BA
S1133270B0280000B028000040290000F8B5C0467E
S1133280F8BC08BC9E467047DD000000F8B5C04697
S10F3290F8BC08BC9E467047B500000066
S113329C01011C01FFFF000032003E002000002051
S11332AC89190000F91B0000000000000000000058
S11332BC00000000010001000000000000000100FB
S11332CC01000000000000000000000000000000ED
S11332DC00000000000000000000000000000000DE
S11332EC00000000000000000000000000000000CE
S11332FC00000000000000000000000000000000BE
S113330C00000000000000000000000000000000AD
S113331C000000000000000000000000000000009D
S113332C000000000000000000000000000000008D
S113333C0000000055AAAA5501000100000000007D
S113334C000001000100000000000000010000006A
S113335C000000000000010000000000000000005C
S113336C010000000100000008000900C200002058
S113337C1921000000000000BD2000000000000026
S113338C06000700AE000020D11F0000F51F00004E
S113339C000000000000000030003000A4000020F9
S11333ACC11F0000DD1F0000000000000000000031
S11333BC000005003801002000000000000000009F
S11333CC00000000000000000000000000000000ED
S11333DC00000000000000000000000009000000D4
S11333EC01000000000006000000010000000000C5
S11333FC03000000010000000000050000000100B3
S107340C00000000B8
S9030000FC
